{
  "contractName": "MemoryToken",
  "abi": [
    {
      "inputs": [],
      "stateMutability": "nonpayable",
      "type": "constructor"
    },
    {
      "anonymous": false,
      "inputs": [
        {
          "indexed": true,
          "internalType": "address",
          "name": "owner",
          "type": "address"
        },
        {
          "indexed": true,
          "internalType": "address",
          "name": "approved",
          "type": "address"
        },
        {
          "indexed": true,
          "internalType": "uint256",
          "name": "tokenId",
          "type": "uint256"
        }
      ],
      "name": "Approval",
      "type": "event"
    },
    {
      "anonymous": false,
      "inputs": [
        {
          "indexed": true,
          "internalType": "address",
          "name": "owner",
          "type": "address"
        },
        {
          "indexed": true,
          "internalType": "address",
          "name": "operator",
          "type": "address"
        },
        {
          "indexed": false,
          "internalType": "bool",
          "name": "approved",
          "type": "bool"
        }
      ],
      "name": "ApprovalForAll",
      "type": "event"
    },
    {
      "anonymous": false,
      "inputs": [
        {
          "indexed": true,
          "internalType": "address",
          "name": "from",
          "type": "address"
        },
        {
          "indexed": true,
          "internalType": "address",
          "name": "to",
          "type": "address"
        },
        {
          "indexed": true,
          "internalType": "uint256",
          "name": "tokenId",
          "type": "uint256"
        }
      ],
      "name": "Transfer",
      "type": "event"
    },
    {
      "inputs": [
        {
          "internalType": "address",
          "name": "to",
          "type": "address"
        },
        {
          "internalType": "uint256",
          "name": "tokenId",
          "type": "uint256"
        }
      ],
      "name": "approve",
      "outputs": [],
      "stateMutability": "nonpayable",
      "type": "function"
    },
    {
      "inputs": [
        {
          "internalType": "address",
          "name": "owner",
          "type": "address"
        }
      ],
      "name": "balanceOf",
      "outputs": [
        {
          "internalType": "uint256",
          "name": "",
          "type": "uint256"
        }
      ],
      "stateMutability": "view",
      "type": "function"
    },
    {
      "inputs": [
        {
          "internalType": "uint256",
          "name": "tokenId",
          "type": "uint256"
        }
      ],
      "name": "getApproved",
      "outputs": [
        {
          "internalType": "address",
          "name": "",
          "type": "address"
        }
      ],
      "stateMutability": "view",
      "type": "function"
    },
    {
      "inputs": [
        {
          "internalType": "address",
          "name": "owner",
          "type": "address"
        },
        {
          "internalType": "address",
          "name": "operator",
          "type": "address"
        }
      ],
      "name": "isApprovedForAll",
      "outputs": [
        {
          "internalType": "bool",
          "name": "",
          "type": "bool"
        }
      ],
      "stateMutability": "view",
      "type": "function"
    },
    {
      "inputs": [],
      "name": "name",
      "outputs": [
        {
          "internalType": "string",
          "name": "",
          "type": "string"
        }
      ],
      "stateMutability": "view",
      "type": "function"
    },
    {
      "inputs": [
        {
          "internalType": "uint256",
          "name": "tokenId",
          "type": "uint256"
        }
      ],
      "name": "ownerOf",
      "outputs": [
        {
          "internalType": "address",
          "name": "",
          "type": "address"
        }
      ],
      "stateMutability": "view",
      "type": "function"
    },
    {
      "inputs": [
        {
          "internalType": "address",
          "name": "from",
          "type": "address"
        },
        {
          "internalType": "address",
          "name": "to",
          "type": "address"
        },
        {
          "internalType": "uint256",
          "name": "tokenId",
          "type": "uint256"
        }
      ],
      "name": "safeTransferFrom",
      "outputs": [],
      "stateMutability": "nonpayable",
      "type": "function"
    },
    {
      "inputs": [
        {
          "internalType": "address",
          "name": "from",
          "type": "address"
        },
        {
          "internalType": "address",
          "name": "to",
          "type": "address"
        },
        {
          "internalType": "uint256",
          "name": "tokenId",
          "type": "uint256"
        },
        {
          "internalType": "bytes",
          "name": "_data",
          "type": "bytes"
        }
      ],
      "name": "safeTransferFrom",
      "outputs": [],
      "stateMutability": "nonpayable",
      "type": "function"
    },
    {
      "inputs": [
        {
          "internalType": "address",
          "name": "operator",
          "type": "address"
        },
        {
          "internalType": "bool",
          "name": "approved",
          "type": "bool"
        }
      ],
      "name": "setApprovalForAll",
      "outputs": [],
      "stateMutability": "nonpayable",
      "type": "function"
    },
    {
      "inputs": [],
      "name": "symbol",
      "outputs": [
        {
          "internalType": "string",
          "name": "",
          "type": "string"
        }
      ],
      "stateMutability": "view",
      "type": "function"
    },
    {
      "inputs": [
        {
          "internalType": "uint256",
          "name": "index",
          "type": "uint256"
        }
      ],
      "name": "tokenByIndex",
      "outputs": [
        {
          "internalType": "uint256",
          "name": "",
          "type": "uint256"
        }
      ],
      "stateMutability": "view",
      "type": "function"
    },
    {
      "inputs": [
        {
          "internalType": "address",
          "name": "owner",
          "type": "address"
        },
        {
          "internalType": "uint256",
          "name": "index",
          "type": "uint256"
        }
      ],
      "name": "tokenOfOwnerByIndex",
      "outputs": [
        {
          "internalType": "uint256",
          "name": "",
          "type": "uint256"
        }
      ],
      "stateMutability": "view",
      "type": "function"
    },
    {
      "inputs": [],
      "name": "totalSupply",
      "outputs": [
        {
          "internalType": "uint256",
          "name": "",
          "type": "uint256"
        }
      ],
      "stateMutability": "view",
      "type": "function"
    },
    {
      "inputs": [
        {
          "internalType": "address",
          "name": "from",
          "type": "address"
        },
        {
          "internalType": "address",
          "name": "to",
          "type": "address"
        },
        {
          "internalType": "uint256",
          "name": "tokenId",
          "type": "uint256"
        }
      ],
      "name": "transferFrom",
      "outputs": [],
      "stateMutability": "nonpayable",
      "type": "function"
    },
    {
      "inputs": [
        {
          "internalType": "uint256",
          "name": "tokenId",
          "type": "uint256"
        }
      ],
      "name": "tokenURI",
      "outputs": [
        {
          "internalType": "string",
          "name": "",
          "type": "string"
        }
      ],
      "stateMutability": "view",
      "type": "function"
    },
    {
      "inputs": [
        {
          "internalType": "bytes4",
          "name": "interfaceId",
          "type": "bytes4"
        }
      ],
      "name": "supportsInterface",
      "outputs": [
        {
          "internalType": "bool",
          "name": "",
          "type": "bool"
        }
      ],
      "stateMutability": "view",
      "type": "function"
    },
    {
      "inputs": [
        {
          "internalType": "address",
          "name": "_to",
          "type": "address"
        },
        {
          "internalType": "string",
          "name": "_tokenURI",
          "type": "string"
        }
      ],
      "name": "mint",
      "outputs": [
        {
          "internalType": "bool",
          "name": "",
          "type": "bool"
        }
      ],
      "stateMutability": "nonpayable",
      "type": "function"
    }
  ],
  "bytecode": "0x60806040523480156200001157600080fd5b506040518060400160405280600c81526020017f4d656d6f727920546f6b656e00000000000000000000000000000000000000008152506040518060400160405280600681526020017f4d454d4f52590000000000000000000000000000000000000000000000000000815250816000908051906020019062000096929190620000b8565b508060019080519060200190620000af929190620000b8565b505050620001cd565b828054620000c69062000168565b90600052602060002090601f016020900481019282620000ea576000855562000136565b82601f106200010557805160ff191683800117855562000136565b8280016001018555821562000136579182015b828111156200013557825182559160200191906001019062000118565b5b50905062000145919062000149565b5090565b5b80821115620001645760008160009055506001016200014a565b5090565b600060028204905060018216806200018157607f821691505b602082108114156200019857620001976200019e565b5b50919050565b7f4e487b7100000000000000000000000000000000000000000000000000000000600052602260045260246000fd5b6132ae80620001dd6000396000f3fe608060405234801561001057600080fd5b506004361061010b5760003560e01c80634f6ccce7116100a2578063a22cb46511610071578063a22cb465146102de578063b88d4fde146102fa578063c87b56dd14610316578063d0def52114610346578063e985e9c5146103765761010b565b80634f6ccce7146102305780636352211e1461026057806370a082311461029057806395d89b41146102c05761010b565b806318160ddd116100de57806318160ddd146101aa57806323b872dd146101c85780632f745c59146101e457806342842e0e146102145761010b565b806301ffc9a71461011057806306fdde0314610140578063081812fc1461015e578063095ea7b31461018e575b600080fd5b61012a60048036038101906101259190612336565b6103a6565b6040516101379190612bc6565b60405180910390f35b6101486103b8565b6040516101559190612be1565b60405180910390f35b61017860048036038101906101739190612388565b61044a565b6040516101859190612b5f565b60405180910390f35b6101a860048036038101906101a391906122fa565b6104cf565b005b6101b26105e7565b6040516101bf9190612e43565b60405180910390f35b6101e260048036038101906101dd91906121a0565b6105f4565b005b6101fe60048036038101906101f991906122fa565b610654565b60405161020b9190612e43565b60405180910390f35b61022e600480360381019061022991906121a0565b6106f9565b005b61024a60048036038101906102459190612388565b610719565b6040516102579190612e43565b60405180910390f35b61027a60048036038101906102759190612388565b6107b0565b6040516102879190612b5f565b60405180910390f35b6102aa60048036038101906102a5919061213b565b610862565b6040516102b79190612e43565b60405180910390f35b6102c861091a565b6040516102d59190612be1565b60405180910390f35b6102f860048036038101906102f3919061226a565b6109ac565b005b610314600480360381019061030f91906121ef565b6109c2565b005b610330600480360381019061032b9190612388565b610a24565b60405161033d9190612be1565b60405180910390f35b610360600480360381019061035b91906122a6565b610a36565b60405161036d9190612bc6565b60405180910390f35b610390600480360381019061038b9190612164565b610a75565b60405161039d9190612bc6565b60405180910390f35b60006103b182610b09565b9050919050565b6060600080546103c7906130a3565b80601f01602080910402602001604051908101604052809291908181526020018280546103f3906130a3565b80156104405780601f1061041557610100808354040283529160200191610440565b820191906000526020600020905b81548152906001019060200180831161042357829003601f168201915b5050505050905090565b600061045582610b83565b610494576040517f08c379a000000000000000000000000000000000000000000000000000000000815260040161048b90612d83565b60405180910390fd5b6004600083815260200190815260200160002060009054906101000a900473ffffffffffffffffffffffffffffffffffffffff169050919050565b60006104da826107b0565b90508073ffffffffffffffffffffffffffffffffffffffff168373ffffffffffffffffffffffffffffffffffffffff16141561054b576040517f08c379a000000000000000000000000000000000000000000000000000000000815260040161054290612de3565b60405180910390fd5b8073ffffffffffffffffffffffffffffffffffffffff1661056a610bef565b73ffffffffffffffffffffffffffffffffffffffff161480610599575061059881610593610bef565b610a75565b5b6105d8576040517f08c379a00000000000000000000000000000000000000000000000000000000081526004016105cf90612cc3565b60405180910390fd5b6105e28383610bf7565b505050565b6000600880549050905090565b6106056105ff610bef565b82610cb0565b610644576040517f08c379a000000000000000000000000000000000000000000000000000000000815260040161063b90612e03565b60405180910390fd5b61064f838383610d8e565b505050565b600061065f83610862565b82106106a0576040517f08c379a000000000000000000000000000000000000000000000000000000000815260040161069790612c03565b60405180910390fd5b600660008473ffffffffffffffffffffffffffffffffffffffff1673ffffffffffffffffffffffffffffffffffffffff168152602001908152602001600020600083815260200190815260200160002054905092915050565b610714838383604051806020016040528060008152506109c2565b505050565b60006107236105e7565b8210610764576040517f08c379a000000000000000000000000000000000000000000000000000000000815260040161075b90612e23565b60405180910390fd5b6008828154811061079e577f4e487b7100000000000000000000000000000000000000000000000000000000600052603260045260246000fd5b90600052602060002001549050919050565b6000806002600084815260200190815260200160002060009054906101000a900473ffffffffffffffffffffffffffffffffffffffff169050600073ffffffffffffffffffffffffffffffffffffffff168173ffffffffffffffffffffffffffffffffffffffff161415610859576040517f08c379a000000000000000000000000000000000000000000000000000000000815260040161085090612d03565b60405180910390fd5b80915050919050565b60008073ffffffffffffffffffffffffffffffffffffffff168273ffffffffffffffffffffffffffffffffffffffff1614156108d3576040517f08c379a00000000000000000000000000000000000000000000000000000000081526004016108ca90612ce3565b60405180910390fd5b600360008373ffffffffffffffffffffffffffffffffffffffff1673ffffffffffffffffffffffffffffffffffffffff168152602001908152602001600020549050919050565b606060018054610929906130a3565b80601f0160208091040260200160405190810160405280929190818152602001828054610955906130a3565b80156109a25780601f10610977576101008083540402835291602001916109a2565b820191906000526020600020905b81548152906001019060200180831161098557829003601f168201915b5050505050905090565b6109be6109b7610bef565b8383610fea565b5050565b6109d36109cd610bef565b83610cb0565b610a12576040517f08c379a0000000000000000000000000000000000000000000000000000000008152600401610a0990612e03565b60405180910390fd5b610a1e84848484611157565b50505050565b6060610a2f826111b3565b9050919050565b600080610a546001610a466105e7565b61130590919063ffffffff16565b9050610a60848261131b565b610a6a81846114e9565b600191505092915050565b6000600560008473ffffffffffffffffffffffffffffffffffffffff1673ffffffffffffffffffffffffffffffffffffffff16815260200190815260200160002060008373ffffffffffffffffffffffffffffffffffffffff1673ffffffffffffffffffffffffffffffffffffffff16815260200190815260200160002060009054906101000a900460ff16905092915050565b60007f780e9d63000000000000000000000000000000000000000000000000000000007bffffffffffffffffffffffffffffffffffffffffffffffffffffffff1916827bffffffffffffffffffffffffffffffffffffffffffffffffffffffff19161480610b7c5750610b7b8261155d565b5b9050919050565b60008073ffffffffffffffffffffffffffffffffffffffff166002600084815260200190815260200160002060009054906101000a900473ffffffffffffffffffffffffffffffffffffffff1673ffffffffffffffffffffffffffffffffffffffff1614159050919050565b600033905090565b816004600083815260200190815260200160002060006101000a81548173ffffffffffffffffffffffffffffffffffffffff021916908373ffffffffffffffffffffffffffffffffffffffff160217905550808273ffffffffffffffffffffffffffffffffffffffff16610c6a836107b0565b73ffffffffffffffffffffffffffffffffffffffff167f8c5be1e5ebec7d5bd14f71427d1e84f3dd0314c0f7b2291e5b200ac8c7c3b92560405160405180910390a45050565b6000610cbb82610b83565b610cfa576040517f08c379a0000000000000000000000000000000000000000000000000000000008152600401610cf190612ca3565b60405180910390fd5b6000610d05836107b0565b90508073ffffffffffffffffffffffffffffffffffffffff168473ffffffffffffffffffffffffffffffffffffffff161480610d7457508373ffffffffffffffffffffffffffffffffffffffff16610d5c8461044a565b73ffffffffffffffffffffffffffffffffffffffff16145b80610d855750610d848185610a75565b5b91505092915050565b8273ffffffffffffffffffffffffffffffffffffffff16610dae826107b0565b73ffffffffffffffffffffffffffffffffffffffff1614610e04576040517f08c379a0000000000000000000000000000000000000000000000000000000008152600401610dfb90612da3565b60405180910390fd5b600073ffffffffffffffffffffffffffffffffffffffff168273ffffffffffffffffffffffffffffffffffffffff161415610e74576040517f08c379a0000000000000000000000000000000000000000000000000000000008152600401610e6b90612c63565b60405180910390fd5b610e7f83838361163f565b610e8a600082610bf7565b6001600360008573ffffffffffffffffffffffffffffffffffffffff1673ffffffffffffffffffffffffffffffffffffffff1681526020019081526020016000206000828254610eda9190612fb9565b925050819055506001600360008473ffffffffffffffffffffffffffffffffffffffff1673ffffffffffffffffffffffffffffffffffffffff1681526020019081526020016000206000828254610f319190612f32565b92505081905550816002600083815260200190815260200160002060006101000a81548173ffffffffffffffffffffffffffffffffffffffff021916908373ffffffffffffffffffffffffffffffffffffffff160217905550808273ffffffffffffffffffffffffffffffffffffffff168473ffffffffffffffffffffffffffffffffffffffff167fddf252ad1be2c89b69c2b068fc378daa952ba7f163c4a11628f55a4df523b3ef60405160405180910390a4505050565b8173ffffffffffffffffffffffffffffffffffffffff168373ffffffffffffffffffffffffffffffffffffffff161415611059576040517f08c379a000000000000000000000000000000000000000000000000000000000815260040161105090612c83565b60405180910390fd5b80600560008573ffffffffffffffffffffffffffffffffffffffff1673ffffffffffffffffffffffffffffffffffffffff16815260200190815260200160002060008473ffffffffffffffffffffffffffffffffffffffff1673ffffffffffffffffffffffffffffffffffffffff16815260200190815260200160002060006101000a81548160ff0219169083151502179055508173ffffffffffffffffffffffffffffffffffffffff168373ffffffffffffffffffffffffffffffffffffffff167f17307eab39ab6107e8899845ad3d59bd9653f200f220920489ca2b5937696c318360405161114a9190612bc6565b60405180910390a3505050565b611162848484610d8e565b61116e8484848461164f565b6111ad576040517f08c379a00000000000000000000000000000000000000000000000000000000081526004016111a490612c23565b60405180910390fd5b50505050565b60606111be82610b83565b6111fd576040517f08c379a00000000000000000000000000000000000000000000000000000000081526004016111f490612d63565b60405180910390fd5b6000600a6000848152602001908152602001600020805461121d906130a3565b80601f0160208091040260200160405190810160405280929190818152602001828054611249906130a3565b80156112965780601f1061126b57610100808354040283529160200191611296565b820191906000526020600020905b81548152906001019060200180831161127957829003601f168201915b5050505050905060006112a76117e6565b90506000815114156112bd578192505050611300565b6000825111156112f25780826040516020016112da929190612b3b565b60405160208183030381529060405292505050611300565b6112fb846117fd565b925050505b919050565b600081836113139190612f32565b905092915050565b600073ffffffffffffffffffffffffffffffffffffffff168273ffffffffffffffffffffffffffffffffffffffff16141561138b576040517f08c379a000000000000000000000000000000000000000000000000000000000815260040161138290612d43565b60405180910390fd5b61139481610b83565b156113d4576040517f08c379a00000000000000000000000000000000000000000000000000000000081526004016113cb90612c43565b60405180910390fd5b6113e06000838361163f565b6001600360008473ffffffffffffffffffffffffffffffffffffffff1673ffffffffffffffffffffffffffffffffffffffff16815260200190815260200160002060008282546114309190612f32565b92505081905550816002600083815260200190815260200160002060006101000a81548173ffffffffffffffffffffffffffffffffffffffff021916908373ffffffffffffffffffffffffffffffffffffffff160217905550808273ffffffffffffffffffffffffffffffffffffffff16600073ffffffffffffffffffffffffffffffffffffffff167fddf252ad1be2c89b69c2b068fc378daa952ba7f163c4a11628f55a4df523b3ef60405160405180910390a45050565b6114f282610b83565b611531576040517f08c379a000000000000000000000000000000000000000000000000000000000815260040161152890612d23565b60405180910390fd5b80600a60008481526020019081526020016000209080519060200190611558929190611f5f565b505050565b60007f80ac58cd000000000000000000000000000000000000000000000000000000007bffffffffffffffffffffffffffffffffffffffffffffffffffffffff1916827bffffffffffffffffffffffffffffffffffffffffffffffffffffffff1916148061162857507f5b5e139f000000000000000000000000000000000000000000000000000000007bffffffffffffffffffffffffffffffffffffffffffffffffffffffff1916827bffffffffffffffffffffffffffffffffffffffffffffffffffffffff1916145b806116385750611637826118a4565b5b9050919050565b61164a83838361190e565b505050565b60006116708473ffffffffffffffffffffffffffffffffffffffff16611a22565b156117d9578373ffffffffffffffffffffffffffffffffffffffff1663150b7a02611699610bef565b8786866040518563ffffffff1660e01b81526004016116bb9493929190612b7a565b602060405180830381600087803b1580156116d557600080fd5b505af192505050801561170657506040513d601f19601f82011682018060405250810190611703919061235f565b60015b611789573d8060008114611736576040519150601f19603f3d011682016040523d82523d6000602084013e61173b565b606091505b50600081511415611781576040517f08c379a000000000000000000000000000000000000000000000000000000000815260040161177890612c23565b60405180910390fd5b805181602001fd5b63150b7a0260e01b7bffffffffffffffffffffffffffffffffffffffffffffffffffffffff1916817bffffffffffffffffffffffffffffffffffffffffffffffffffffffff1916149150506117de565b600190505b949350505050565b606060405180602001604052806000815250905090565b606061180882610b83565b611847576040517f08c379a000000000000000000000000000000000000000000000000000000000815260040161183e90612dc3565b60405180910390fd5b60006118516117e6565b90506000815111611871576040518060200160405280600081525061189c565b8061187b84611a35565b60405160200161188c929190612b3b565b6040516020818303038152906040525b915050919050565b60007f01ffc9a7000000000000000000000000000000000000000000000000000000007bffffffffffffffffffffffffffffffffffffffffffffffffffffffff1916827bffffffffffffffffffffffffffffffffffffffffffffffffffffffff1916149050919050565b611919838383611be2565b600073ffffffffffffffffffffffffffffffffffffffff168373ffffffffffffffffffffffffffffffffffffffff16141561195c5761195781611be7565b61199b565b8173ffffffffffffffffffffffffffffffffffffffff168373ffffffffffffffffffffffffffffffffffffffff161461199a576119998382611c30565b5b5b600073ffffffffffffffffffffffffffffffffffffffff168273ffffffffffffffffffffffffffffffffffffffff1614156119de576119d981611d9d565b611a1d565b8273ffffffffffffffffffffffffffffffffffffffff168273ffffffffffffffffffffffffffffffffffffffff1614611a1c57611a1b8282611ee0565b5b5b505050565b600080823b905060008111915050919050565b60606000821415611a7d576040518060400160405280600181526020017f30000000000000000000000000000000000000000000000000000000000000008152509050611bdd565b600082905060005b60008214611aaf578080611a98906130d5565b915050600a82611aa89190612f88565b9150611a85565b60008167ffffffffffffffff811115611af1577f4e487b7100000000000000000000000000000000000000000000000000000000600052604160045260246000fd5b6040519080825280601f01601f191660200182016040528015611b235781602001600182028036833780820191505090505b5090505b60008514611bd657600182611b3c9190612fb9565b9150600a85611b4b919061311e565b6030611b579190612f32565b60f81b818381518110611b93577f4e487b7100000000000000000000000000000000000000000000000000000000600052603260045260246000fd5b60200101907effffffffffffffffffffffffffffffffffffffffffffffffffffffffffffff1916908160001a905350600a85611bcf9190612f88565b9450611b27565b8093505050505b919050565b505050565b6008805490506009600083815260200190815260200160002081905550600881908060018154018082558091505060019003906000526020600020016000909190919091505550565b60006001611c3d84610862565b611c479190612fb9565b9050600060076000848152602001908152602001600020549050818114611d2c576000600660008673ffffffffffffffffffffffffffffffffffffffff1673ffffffffffffffffffffffffffffffffffffffff168152602001908152602001600020600084815260200190815260200160002054905080600660008773ffffffffffffffffffffffffffffffffffffffff1673ffffffffffffffffffffffffffffffffffffffff168152602001908152602001600020600084815260200190815260200160002081905550816007600083815260200190815260200160002081905550505b6007600084815260200190815260200160002060009055600660008573ffffffffffffffffffffffffffffffffffffffff1673ffffffffffffffffffffffffffffffffffffffff16815260200190815260200160002060008381526020019081526020016000206000905550505050565b60006001600880549050611db19190612fb9565b9050600060096000848152602001908152602001600020549050600060088381548110611e07577f4e487b7100000000000000000000000000000000000000000000000000000000600052603260045260246000fd5b906000526020600020015490508060088381548110611e4f577f4e487b7100000000000000000000000000000000000000000000000000000000600052603260045260246000fd5b906000526020600020018190555081600960008381526020019081526020016000208190555060096000858152602001908152602001600020600090556008805480611ec4577f4e487b7100000000000000000000000000000000000000000000000000000000600052603160045260246000fd5b6001900381819060005260206000200160009055905550505050565b6000611eeb83610862565b905081600660008573ffffffffffffffffffffffffffffffffffffffff1673ffffffffffffffffffffffffffffffffffffffff168152602001908152602001600020600083815260200190815260200160002081905550806007600084815260200190815260200160002081905550505050565b828054611f6b906130a3565b90600052602060002090601f016020900481019282611f8d5760008555611fd4565b82601f10611fa657805160ff1916838001178555611fd4565b82800160010185558215611fd4579182015b82811115611fd3578251825591602001919060010190611fb8565b5b509050611fe19190611fe5565b5090565b5b80821115611ffe576000816000905550600101611fe6565b5090565b600061201561201084612e8f565b612e5e565b90508281526020810184848401111561202d57600080fd5b612038848285613061565b509392505050565b600061205361204e84612ebf565b612e5e565b90508281526020810184848401111561206b57600080fd5b612076848285613061565b509392505050565b60008135905061208d8161321c565b92915050565b6000813590506120a281613233565b92915050565b6000813590506120b78161324a565b92915050565b6000815190506120cc8161324a565b92915050565b600082601f8301126120e357600080fd5b81356120f3848260208601612002565b91505092915050565b600082601f83011261210d57600080fd5b813561211d848260208601612040565b91505092915050565b60008135905061213581613261565b92915050565b60006020828403121561214d57600080fd5b600061215b8482850161207e565b91505092915050565b6000806040838503121561217757600080fd5b60006121858582860161207e565b92505060206121968582860161207e565b9150509250929050565b6000806000606084860312156121b557600080fd5b60006121c38682870161207e565b93505060206121d48682870161207e565b92505060406121e586828701612126565b9150509250925092565b6000806000806080858703121561220557600080fd5b60006122138782880161207e565b94505060206122248782880161207e565b935050604061223587828801612126565b925050606085013567ffffffffffffffff81111561225257600080fd5b61225e878288016120d2565b91505092959194509250565b6000806040838503121561227d57600080fd5b600061228b8582860161207e565b925050602061229c85828601612093565b9150509250929050565b600080604083850312156122b957600080fd5b60006122c78582860161207e565b925050602083013567ffffffffffffffff8111156122e457600080fd5b6122f0858286016120fc565b9150509250929050565b6000806040838503121561230d57600080fd5b600061231b8582860161207e565b925050602061232c85828601612126565b9150509250929050565b60006020828403121561234857600080fd5b6000612356848285016120a8565b91505092915050565b60006020828403121561237157600080fd5b600061237f848285016120bd565b91505092915050565b60006020828403121561239a57600080fd5b60006123a884828501612126565b91505092915050565b6123ba81612fed565b82525050565b6123c981612fff565b82525050565b60006123da82612eef565b6123e48185612f05565b93506123f4818560208601613070565b6123fd8161320b565b840191505092915050565b600061241382612efa565b61241d8185612f16565b935061242d818560208601613070565b6124368161320b565b840191505092915050565b600061244c82612efa565b6124568185612f27565b9350612466818560208601613070565b80840191505092915050565b600061247f602b83612f16565b91507f455243373231456e756d657261626c653a206f776e657220696e646578206f7560008301527f74206f6620626f756e64730000000000000000000000000000000000000000006020830152604082019050919050565b60006124e5603283612f16565b91507f4552433732313a207472616e7366657220746f206e6f6e20455243373231526560008301527f63656976657220696d706c656d656e74657200000000000000000000000000006020830152604082019050919050565b600061254b601c83612f16565b91507f4552433732313a20746f6b656e20616c7265616479206d696e746564000000006000830152602082019050919050565b600061258b602483612f16565b91507f4552433732313a207472616e7366657220746f20746865207a65726f2061646460008301527f72657373000000000000000000000000000000000000000000000000000000006020830152604082019050919050565b60006125f1601983612f16565b91507f4552433732313a20617070726f766520746f2063616c6c6572000000000000006000830152602082019050919050565b6000612631602c83612f16565b91507f4552433732313a206f70657261746f7220717565727920666f72206e6f6e657860008301527f697374656e7420746f6b656e00000000000000000000000000000000000000006020830152604082019050919050565b6000612697603883612f16565b91507f4552433732313a20617070726f76652063616c6c6572206973206e6f74206f7760008301527f6e6572206e6f7220617070726f76656420666f7220616c6c00000000000000006020830152604082019050919050565b60006126fd602a83612f16565b91507f4552433732313a2062616c616e636520717565727920666f7220746865207a6560008301527f726f2061646472657373000000000000000000000000000000000000000000006020830152604082019050919050565b6000612763602983612f16565b91507f4552433732313a206f776e657220717565727920666f72206e6f6e657869737460008301527f656e7420746f6b656e00000000000000000000000000000000000000000000006020830152604082019050919050565b60006127c9602e83612f16565b91507f45524337323155524953746f726167653a2055524920736574206f66206e6f6e60008301527f6578697374656e7420746f6b656e0000000000000000000000000000000000006020830152604082019050919050565b600061282f602083612f16565b91507f4552433732313a206d696e7420746f20746865207a65726f20616464726573736000830152602082019050919050565b600061286f603183612f16565b91507f45524337323155524953746f726167653a2055524920717565727920666f722060008301527f6e6f6e6578697374656e7420746f6b656e0000000000000000000000000000006020830152604082019050919050565b60006128d5602c83612f16565b91507f4552433732313a20617070726f76656420717565727920666f72206e6f6e657860008301527f697374656e7420746f6b656e00000000000000000000000000000000000000006020830152604082019050919050565b600061293b602983612f16565b91507f4552433732313a207472616e73666572206f6620746f6b656e2074686174206960008301527f73206e6f74206f776e00000000000000000000000000000000000000000000006020830152604082019050919050565b60006129a1602f83612f16565b91507f4552433732314d657461646174613a2055524920717565727920666f72206e6f60008301527f6e6578697374656e7420746f6b656e00000000000000000000000000000000006020830152604082019050919050565b6000612a07602183612f16565b91507f4552433732313a20617070726f76616c20746f2063757272656e74206f776e6560008301527f72000000000000000000000000000000000000000000000000000000000000006020830152604082019050919050565b6000612a6d603183612f16565b91507f4552433732313a207472616e736665722063616c6c6572206973206e6f74206f60008301527f776e6572206e6f7220617070726f7665640000000000000000000000000000006020830152604082019050919050565b6000612ad3602c83612f16565b91507f455243373231456e756d657261626c653a20676c6f62616c20696e646578206f60008301527f7574206f6620626f756e647300000000000000000000000000000000000000006020830152604082019050919050565b612b3581613057565b82525050565b6000612b478285612441565b9150612b538284612441565b91508190509392505050565b6000602082019050612b7460008301846123b1565b92915050565b6000608082019050612b8f60008301876123b1565b612b9c60208301866123b1565b612ba96040830185612b2c565b8181036060830152612bbb81846123cf565b905095945050505050565b6000602082019050612bdb60008301846123c0565b92915050565b60006020820190508181036000830152612bfb8184612408565b905092915050565b60006020820190508181036000830152612c1c81612472565b9050919050565b60006020820190508181036000830152612c3c816124d8565b9050919050565b60006020820190508181036000830152612c5c8161253e565b9050919050565b60006020820190508181036000830152612c7c8161257e565b9050919050565b60006020820190508181036000830152612c9c816125e4565b9050919050565b60006020820190508181036000830152612cbc81612624565b9050919050565b60006020820190508181036000830152612cdc8161268a565b9050919050565b60006020820190508181036000830152612cfc816126f0565b9050919050565b60006020820190508181036000830152612d1c81612756565b9050919050565b60006020820190508181036000830152612d3c816127bc565b9050919050565b60006020820190508181036000830152612d5c81612822565b9050919050565b60006020820190508181036000830152612d7c81612862565b9050919050565b60006020820190508181036000830152612d9c816128c8565b9050919050565b60006020820190508181036000830152612dbc8161292e565b9050919050565b60006020820190508181036000830152612ddc81612994565b9050919050565b60006020820190508181036000830152612dfc816129fa565b9050919050565b60006020820190508181036000830152612e1c81612a60565b9050919050565b60006020820190508181036000830152612e3c81612ac6565b9050919050565b6000602082019050612e586000830184612b2c565b92915050565b6000604051905081810181811067ffffffffffffffff82111715612e8557612e846131dc565b5b8060405250919050565b600067ffffffffffffffff821115612eaa57612ea96131dc565b5b601f19601f8301169050602081019050919050565b600067ffffffffffffffff821115612eda57612ed96131dc565b5b601f19601f8301169050602081019050919050565b600081519050919050565b600081519050919050565b600082825260208201905092915050565b600082825260208201905092915050565b600081905092915050565b6000612f3d82613057565b9150612f4883613057565b9250827fffffffffffffffffffffffffffffffffffffffffffffffffffffffffffffffff03821115612f7d57612f7c61314f565b5b828201905092915050565b6000612f9382613057565b9150612f9e83613057565b925082612fae57612fad61317e565b5b828204905092915050565b6000612fc482613057565b9150612fcf83613057565b925082821015612fe257612fe161314f565b5b828203905092915050565b6000612ff882613037565b9050919050565b60008115159050919050565b60007fffffffff0000000000000000000000000000000000000000000000000000000082169050919050565b600073ffffffffffffffffffffffffffffffffffffffff82169050919050565b6000819050919050565b82818337600083830152505050565b60005b8381101561308e578082015181840152602081019050613073565b8381111561309d576000848401525b50505050565b600060028204905060018216806130bb57607f821691505b602082108114156130cf576130ce6131ad565b5b50919050565b60006130e082613057565b91507fffffffffffffffffffffffffffffffffffffffffffffffffffffffffffffffff8214156131135761311261314f565b5b600182019050919050565b600061312982613057565b915061313483613057565b9250826131445761314361317e565b5b828206905092915050565b7f4e487b7100000000000000000000000000000000000000000000000000000000600052601160045260246000fd5b7f4e487b7100000000000000000000000000000000000000000000000000000000600052601260045260246000fd5b7f4e487b7100000000000000000000000000000000000000000000000000000000600052602260045260246000fd5b7f4e487b7100000000000000000000000000000000000000000000000000000000600052604160045260246000fd5b6000601f19601f8301169050919050565b61322581612fed565b811461323057600080fd5b50565b61323c81612fff565b811461324757600080fd5b50565b6132538161300b565b811461325e57600080fd5b50565b61326a81613057565b811461327557600080fd5b5056fea26469706673582212205172226de18f98d09918da581b72f3756e237900a2793f265f64375ab95957f164736f6c63430008000033",
  "immutableReferences": {},
  "source": "// SPDX-License-Identifier: MIT\npragma solidity 0.8.0;\n/// @title NFT MEMORY GAME\n/// @notice NFT Memery Game smart contract\n\n/// @notice inhert NFT (ERC721) contracts from openzeppelin.\nimport '@openzeppelin/contracts/token/ERC721/ERC721.sol';\n\n/**\n * @dev Optional enumeration implementation for ERC-721 non-fungible token standard.\n */\nimport '@openzeppelin/contracts/token/ERC721/extensions/ERC721Enumerable.sol';\n/**\n * @dev ERC721 token with storage based token URI management.\n */\nimport '@openzeppelin/contracts/token/ERC721/extensions/ERC721URIStorage.sol';\n///@dev Wrappers over Solidity's arithmetic operations.\nimport '@openzeppelin/contracts/utils/math/SafeMath.sol';\n\n\ncontract MemoryToken is ERC721, ERC721Enumerable, ERC721URIStorage {\n\tusing SafeMath for uint256;\n\n  /**\n  @notice Initializes the contract by setting a name and a symbol to the token collection.\n   */\n\tconstructor() ERC721('Memory Token', 'MEMORY') {}\n\n/**\n@notice Hook that is called before any token transfer. This includes minting and burning.\n@dev calling condition When from and to are both non-zero, from's tokenId will be transferred to to\n\n@param from address token from\n@param to address to tranfer token to\n@param tokenId the  token ID\n */\n\tfunction _beforeTokenTransfer(\n\t\taddress from,\n\t\taddress to,\n\t\tuint256 tokenId\n\t) internal override(ERC721, ERC721Enumerable) {\n\t\tsuper._beforeTokenTransfer(from, to, tokenId);\n\t}\n\n/**\n@notice Internal function to burn a specific token. Reverts if the token does not exist.\n@param tokenId the token ID\n */\n\tfunction _burn(uint256 tokenId) internal override(ERC721, ERC721URIStorage) {\n\t\tsuper._burn(tokenId);\n\t}\n\n\n   /**@dev Returns the URI for a given token ID. May return an empty string.\n   If the tokens URI is non-empty and a base URI was set (via _setBaseURI), it will be added to the token IDs URI as a prefix.\n   Reverts if the token ID does not exist.\n   @param tokenId the token ID\n    */\n\tfunction tokenURI(uint256 tokenId)\n\t\tpublic\n\t\tview\n\t\toverride(ERC721, ERC721URIStorage)\n\t\treturns (string memory)\n\t{\n\t\treturn super.tokenURI(tokenId);\n\t}\n\n    ///@notice Returns true if account supports the IERC165 interface,\n\tfunction supportsInterface(bytes4 interfaceId)\n\t\tpublic\n\t\tview\n\t\toverride(ERC721, ERC721Enumerable)\n\t\treturns (bool)\n\t{\n\t\treturn super.supportsInterface(interfaceId);\n\t}\n\n/**\n   /// @notice This is a minting function\n   /**  @dev the function takes player addrress and nft uri and \n\tincremnt number of nft the player gained and assign token uri to \n\tplayer address and finally returns boolean value(True) if minting was sucessfull\n\t*/\n\t///@notice totalSupply Returns the total amount of tokens stored by the contract.\n\t/// @param _to player address \n\t ///@param _tokenURI nft uri\n    \n\tfunction mint(address _to, string memory _tokenURI) public returns (bool) {\n\t\tuint256 _tokenId = totalSupply().add(1);\n\t\t_mint(_to, _tokenId);\n\t\t_setTokenURI(_tokenId, _tokenURI);\n\t\treturn true;\n\t}\n}\n",
  "sourcePath": "/mnt/c/Users/LENOVO/yeswevisit-chainlink-hackathon/MemoryGame-chainlink-hackathon/src/contracts/MemoryToken.sol",
  "compiler": {
    "name": "solc",
    "version": "0.8.0+commit.c7dfd78e.Emscripten.clang"
  },
  "schemaVersion": "3.4.1",
  "updatedAt": "2021-11-29T11:27:32.708Z",
  "devdoc": {
    "kind": "dev",
    "methods": {
      "approve(address,uint256)": {
        "details": "See {IERC721-approve}."
      },
      "balanceOf(address)": {
        "details": "See {IERC721-balanceOf}."
      },
      "getApproved(uint256)": {
        "details": "See {IERC721-getApproved}."
      },
      "isApprovedForAll(address,address)": {
        "details": "See {IERC721-isApprovedForAll}."
      },
      "mint(address,string)": {
        "params": {
          "_to": "player address ",
          "_tokenURI": "nft uri"
        }
      },
      "name()": {
        "details": "See {IERC721Metadata-name}."
      },
      "ownerOf(uint256)": {
        "details": "See {IERC721-ownerOf}."
      },
      "safeTransferFrom(address,address,uint256)": {
        "details": "See {IERC721-safeTransferFrom}."
      },
      "safeTransferFrom(address,address,uint256,bytes)": {
        "details": "See {IERC721-safeTransferFrom}."
      },
      "setApprovalForAll(address,bool)": {
        "details": "See {IERC721-setApprovalForAll}."
      },
      "symbol()": {
        "details": "See {IERC721Metadata-symbol}."
      },
      "tokenByIndex(uint256)": {
        "details": "See {IERC721Enumerable-tokenByIndex}."
      },
      "tokenOfOwnerByIndex(address,uint256)": {
        "details": "See {IERC721Enumerable-tokenOfOwnerByIndex}."
      },
      "tokenURI(uint256)": {
        "details": "Returns the URI for a given token ID. May return an empty string. If the tokens URI is non-empty and a base URI was set (via _setBaseURI), it will be added to the token IDs URI as a prefix. Reverts if the token ID does not exist.",
        "params": {
          "tokenId": "the token ID"
        }
      },
      "totalSupply()": {
        "details": "See {IERC721Enumerable-totalSupply}."
      },
      "transferFrom(address,address,uint256)": {
        "details": "See {IERC721-transferFrom}."
      }
    },
    "version": 1
  },
  "userdoc": {
    "kind": "user",
    "methods": {
      "constructor": {
        "notice": "Initializes the contract by setting a name and a symbol to the token collection."
      },
      "mint(address,string)": {
        "notice": "totalSupply Returns the total amount of tokens stored by the contract."
      },
      "supportsInterface(bytes4)": {
        "notice": "Returns true if account supports the IERC165 interface,"
      }
    },
    "version": 1
  }
}